S01D000049522D4D4152454C41422D57415445524C4556454C2E7372656323
S11300000EC028C075C026C026C024C023C022C08C
S113001021C020C01FC01EC01DC01CC01BC0112495
S11300201FBECFE5D1E0DEBFCDBF10E0A0E6B0E05B
S1130030E0EBF1E002C005900D92A036B107D9F7CC
S113004020E0A0E6B0E001C01D92AB36B207E1F7B4
S1130050A5D0ACC0D5CF1F920F920FB60F9211242A
S11300602F938F939F93AF93BF9380916000909150
S11300706100A0916200B09163000196A11DB11DC1
S11300808093600090936100A0936200B09363003A
S1130090803A9F40A105B10531F480B78F7D80BFC0
S11300A080B78F7E80BF8091600090916100A091A5
S11300B06200B091630080349F41A105B10571F4E1
S11300C080B7806280BF80B7806180BF109260007B
S11300D0109261001092620010926300BF91AF9180
S11300E09F918F912F910F900FBE0F901F90189595
S11300F01F920F920FB60F9211242F938F939F93F9
S1130100AF93BF938091600090916100A0916200D1
S1130110B091630081359105A105B10540F08039A6
S11301209140A105B10510F4C29801C0C29ABF91D3
S1130130AF919F918F912F910F900FBE0F901F90B1
S1130140189582E480BF1CBC80B7806380BF80E5C3
S11301508EBD8FEF8DBD1FBC84E089BFB99A8BB76C
S113016080628BBFA89A87B387BB81E088BBBA9AA9
S1130170789426E930E030936A002093690024E4FF
S113018036E1309368002093670020E63BE3309328
S1130190660020936500809364000895D2DF809107
S11301A064008130F1F380E090E00895F894FFCF8B
S9030000FC
