:100000000EC028C093C026C026C024C023C022C072
:1000100021C020C01FC01EC01DC01CC01BC0112499
:100020001FBECFE5D1E0DEBFCDBF10E0A0E6B0E05F
:10003000ECE2F2E002C005900D92A036B107D9F7CC
:1000400020E0A0E6B0E001C01D92A137B207E1F7C1
:10005000E3D0EAC0D5CF1F920F920FB60F921124B2
:100060002F933F938F939F93AF93BF9380916000A3
:1000700090916100A0916200B09163000196A11D72
:10008000B11D8093600090936100A0936200B093D3
:100090006300803A9F40A105B105B1F480B78F7D20
:1000A00080BF80B78F7E80BF80916800909169008B
:1000B0002091660030916700880F991F821793077F
:1000C00010F4C29A01C0C2988091600090916100C2
:1000D000A0916200B091630080349F41A105B105F9
:1000E000D1F480B7806280BF80B7806180BF1092FA
:1000F00060001092610010926200109263001092F2
:1001000067001092660010926900109268001092C9
:10011000650010926400BF91AF919F918F913F91C4
:100120002F910F900FBE0F901F9018951F920F9256
:100130000FB60F9211242F933F934F935F938F939A
:100140009F93B09B15C04091640050916500209131
:100150006800309169008091600090916100841B7B
:10016000950B820F931F909369008093680014C0D1
:1001700040916400509165002091660030916700C5
:100180008091600090916100841B950B820F931FFA
:100190009093670080936600809160009091610069
:1001A00090936500809364009F918F915F914F9130
:1001B0003F912F910F900FBE0F901F90189582E4E2
:1001C00080BF1CBC80B7806380BF80E58EBD8FEF91
:1001D0008DBD1FBC84E089BFB99A8BB780628BBF8D
:1001E000A89A87B387BB81E088BBBA9A789426E93E
:1001F00030E03093700020936F0024E436E13093B8
:100200006E0020936D0020E63BE330936C0020935A
:100210006B0080936A000895D2DF80916A0081307C
:0C022000F1F380E090E00895F894FFCF27
:00000001FF
